{
  "contractName": "campaignFactory",
  "abi": [
    {
      "constant": true,
      "inputs": [
        {
          "internalType": "uint256",
          "name": "",
          "type": "uint256"
        }
      ],
      "name": "deployedCampaigns",
      "outputs": [
        {
          "internalType": "address",
          "name": "",
          "type": "address"
        }
      ],
      "payable": false,
      "stateMutability": "view",
      "type": "function"
    },
    {
      "constant": false,
      "inputs": [
        {
          "internalType": "uint256",
          "name": "minimum",
          "type": "uint256"
        }
      ],
      "name": "createCampaign",
      "outputs": [],
      "payable": false,
      "stateMutability": "nonpayable",
      "type": "function"
    },
    {
      "constant": true,
      "inputs": [],
      "name": "getDeployedCampaign",
      "outputs": [
        {
          "internalType": "address[]",
          "name": "",
          "type": "address[]"
        }
      ],
      "payable": false,
      "stateMutability": "view",
      "type": "function"
    }
  ],
  "bytecode": "0x608060405234801561001057600080fd5b50611105806100206000396000f3fe608060405234801561001057600080fd5b50600436106100415760003560e01c8063339d50a5146100465780635eac0007146100b4578063a3303a7514610113575b600080fd5b6100726004803603602081101561005c57600080fd5b8101908080359060200190929190505050610141565b604051808273ffffffffffffffffffffffffffffffffffffffff1673ffffffffffffffffffffffffffffffffffffffff16815260200191505060405180910390f35b6100bc61017d565b6040518080602001828103825283818151815260200191508051906020019060200280838360005b838110156100ff5780820151818401526020810190506100e4565b505050509050019250505060405180910390f35b61013f6004803603602081101561012957600080fd5b810190808035906020019092919050505061020b565b005b6000818154811061014e57fe5b906000526020600020016000915054906101000a900473ffffffffffffffffffffffffffffffffffffffff1681565b6060600080548060200260200160405190810160405280929190818152602001828054801561020157602002820191906000526020600020905b8160009054906101000a900473ffffffffffffffffffffffffffffffffffffffff1673ffffffffffffffffffffffffffffffffffffffff16815260200190600101908083116101b7575b5050505050905090565b6000813360405161021b906102e1565b808381526020018273ffffffffffffffffffffffffffffffffffffffff1673ffffffffffffffffffffffffffffffffffffffff16815260200192505050604051809103906000f080158015610274573d6000803e3d6000fd5b50905060008190806001815401808255809150509060018203906000526020600020016000909192909190916101000a81548173ffffffffffffffffffffffffffffffffffffffff021916908373ffffffffffffffffffffffffffffffffffffffff160217905550505050565b610de2806102ef8339019056fe608060405234801561001057600080fd5b50604051610de2380380610de28339818101604052604081101561003357600080fd5b81019080805190602001909291908051906020019092919050505080600160006101000a81548173ffffffffffffffffffffffffffffffffffffffff021916908373ffffffffffffffffffffffffffffffffffffffff160217905550816002819055505050610d3b806100a76000396000f3fe60806040526004361061007b5760003560e01c80638a9cfd551161004e5780638a9cfd551461027b578063937e09b11461036d578063d7bb99ba14610398578063d7d1bbdb146103a25761007b565b806303441006146100805780630a144391146100bb578063481c6a751461012457806381d12c581461017b575b600080fd5b34801561008c57600080fd5b506100b9600480360360208110156100a357600080fd5b81019080803590602001909291905050506103dd565b005b3480156100c757600080fd5b5061010a600480360360208110156100de57600080fd5b81019080803573ffffffffffffffffffffffffffffffffffffffff16906020019092919050505061065e565b604051808215151515815260200191505060405180910390f35b34801561013057600080fd5b5061013961067e565b604051808273ffffffffffffffffffffffffffffffffffffffff1673ffffffffffffffffffffffffffffffffffffffff16815260200191505060405180910390f35b34801561018757600080fd5b506101b46004803603602081101561019e57600080fd5b81019080803590602001909291905050506106a4565b60405180806020018681526020018573ffffffffffffffffffffffffffffffffffffffff1673ffffffffffffffffffffffffffffffffffffffff16815260200184151515158152602001838152602001828103825287818151815260200191508051906020019080838360005b8381101561023c578082015181840152602081019050610221565b50505050905090810190601f1680156102695780820380516001836020036101000a031916815260200191505b50965050505050505060405180910390f35b34801561028757600080fd5b5061036b6004803603606081101561029e57600080fd5b81019080803590602001906401000000008111156102bb57600080fd5b8201836020820111156102cd57600080fd5b803590602001918460018302840111640100000000831117156102ef57600080fd5b91908080601f016020809104026020016040519081016040528093929190818152602001838380828437600081840152601f19601f82011690508083019250505050505050919291929080359060200190929190803573ffffffffffffffffffffffffffffffffffffffff1690602001909291905050506107ac565b005b34801561037957600080fd5b50610382610989565b6040518082815260200191505060405180910390f35b6103a061098f565b005b3480156103ae57600080fd5b506103db600480360360208110156103c557600080fd5b8101908080359060200190929190505050610a09565b005b600160009054906101000a900473ffffffffffffffffffffffffffffffffffffffff1673ffffffffffffffffffffffffffffffffffffffff163373ffffffffffffffffffffffffffffffffffffffff16146104a0576040517f08c379a000000000000000000000000000000000000000000000000000000000815260040180806020018281038252600d8152602001807f6e6f742061206d616e616765720000000000000000000000000000000000000081525060200191505060405180910390fd5b60008082815481106104ae57fe5b906000526020600020906005020190506002600454816104ca57fe5b04816003015411610543576040517f08c379a00000000000000000000000000000000000000000000000000000000081526004018080602001828103825260198152602001807f6e6f74206861766520656e6f75676820636f6e73656e7375730000000000000081525060200191505060405180910390fd5b8060020160149054906101000a900460ff16156105c8576040517f08c379a00000000000000000000000000000000000000000000000000000000081526004018080602001828103825260188152602001807f7265717565737420616c726561647920636f6d6c65746564000000000000000081525060200191505060405180910390fd5b60008160020160009054906101000a900473ffffffffffffffffffffffffffffffffffffffff1690508073ffffffffffffffffffffffffffffffffffffffff166108fc83600101549081150290604051600060405180830381858888f1935050505015801561063b573d6000803e3d6000fd5b5060018260020160146101000a81548160ff021916908315150217905550505050565b60036020528060005260406000206000915054906101000a900460ff1681565b600160009054906101000a900473ffffffffffffffffffffffffffffffffffffffff1681565b600081815481106106b157fe5b9060005260206000209060050201600091509050806000018054600181600116156101000203166002900480601f01602080910402602001604051908101604052809291908181526020018280546001816001161561010002031660029004801561075d5780601f106107325761010080835404028352916020019161075d565b820191906000526020600020905b81548152906001019060200180831161074057829003601f168201915b5050505050908060010154908060020160009054906101000a900473ffffffffffffffffffffffffffffffffffffffff16908060020160149054906101000a900460ff16908060030154905085565b600160009054906101000a900473ffffffffffffffffffffffffffffffffffffffff1673ffffffffffffffffffffffffffffffffffffffff163373ffffffffffffffffffffffffffffffffffffffff161461086f576040517f08c379a000000000000000000000000000000000000000000000000000000000815260040180806020018281038252600d8152602001807f6e6f742061206d616e616765720000000000000000000000000000000000000081525060200191505060405180910390fd5b610877610c1a565b6040518060a001604052808581526020018481526020018373ffffffffffffffffffffffffffffffffffffffff16815260200160001515815260200160008152509050600081908060018154018082558091505090600182039060005260206000209060050201600090919290919091506000820151816000019080519060200190610904929190610c61565b506020820151816001015560408201518160020160006101000a81548173ffffffffffffffffffffffffffffffffffffffff021916908373ffffffffffffffffffffffffffffffffffffffff16021790555060608201518160020160146101000a81548160ff0219169083151502179055506080820151816003015550505050505050565b60025481565b600254341161099d57600080fd5b6001600360003373ffffffffffffffffffffffffffffffffffffffff1673ffffffffffffffffffffffffffffffffffffffff16815260200190815260200160002060006101000a81548160ff021916908315150217905550600460008154809291906001019190505550565b6000808281548110610a1757fe5b90600052602060002090600502019050600360003373ffffffffffffffffffffffffffffffffffffffff1673ffffffffffffffffffffffffffffffffffffffff16815260200190815260200160002060009054906101000a900460ff16610ae6576040517f08c379a00000000000000000000000000000000000000000000000000000000081526004018080602001828103825260118152602001807f6e6f74206120636f6e747269627574657200000000000000000000000000000081525060200191505060405180910390fd5b8060040160003373ffffffffffffffffffffffffffffffffffffffff1673ffffffffffffffffffffffffffffffffffffffff16815260200190815260200160002060009054906101000a900460ff1615610ba8576040517f08c379a00000000000000000000000000000000000000000000000000000000081526004018080602001828103825260208152602001807f68617320616c726561647920617070726f76656420746865207265717565737481525060200191505060405180910390fd5b60018160040160003373ffffffffffffffffffffffffffffffffffffffff1673ffffffffffffffffffffffffffffffffffffffff16815260200190815260200160002060006101000a81548160ff02191690831515021790555080600301600081548092919060010191905055505050565b6040518060a001604052806060815260200160008152602001600073ffffffffffffffffffffffffffffffffffffffff168152602001600015158152602001600081525090565b828054600181600116156101000203166002900490600052602060002090601f016020900481019282601f10610ca257805160ff1916838001178555610cd0565b82800160010185558215610cd0579182015b82811115610ccf578251825591602001919060010190610cb4565b5b509050610cdd9190610ce1565b5090565b610d0391905b80821115610cff576000816000905550600101610ce7565b5090565b9056fea265627a7a7231582021bc70b27e8aae522e3eaf175dc84f379a4247a8c3ed049aeae166f4c646bf8864736f6c63430005100032a265627a7a7231582031974e31aeefcbca0dd217a8e2df58cabeaa9de3c57a854c1c0f0c085ded7cda64736f6c63430005100032",
  "source": "pragma solidity ^0.5.16;\r\n\r\nimport \"./Campaign.sol\";\r\n\r\ncontract campaignFactory{\r\n    \r\n    address[] public deployedCampaigns;\r\n    \r\n    function createCampaign(uint minimum) public {\r\n        address newCampaign = address(new Campaign(minimum, msg.sender));\r\n        deployedCampaigns.push(newCampaign);\r\n    }\r\n    \r\n    function getDeployedCampaign() public view returns(address[] memory){\r\n        return deployedCampaigns;\r\n    }\r\n}\r\n    ",
  "sourcePath": "D:/Projects/blockchain projects/truffle react kickstart/contracts/campaignFactory.sol",
  "compiler": {
    "name": "solc",
    "version": "0.5.16+commit.9c3226ce.Emscripten.clang"
  },
  "schemaVersion": "3.4.1",
  "updatedAt": "2021-08-12T16:58:53.666Z",
  "networkType": "ethereum",
  "devdoc": {
    "methods": {}
  },
  "userdoc": {
    "methods": {}
  }
}